{
  "contractName": "Casino",
  "abi": [
    {
      "constant": true,
      "inputs": [],
      "name": "numberOfBets",
      "outputs": [
        {
          "name": "",
          "type": "uint256"
        }
      ],
      "payable": false,
      "stateMutability": "view",
      "type": "function"
    },
    {
      "constant": true,
      "inputs": [
        {
          "name": "",
          "type": "address"
        }
      ],
      "name": "playerInfo",
      "outputs": [
        {
          "name": "amountBet",
          "type": "uint256"
        },
        {
          "name": "numberSelected",
          "type": "uint256"
        }
      ],
      "payable": false,
      "stateMutability": "view",
      "type": "function"
    },
    {
      "constant": true,
      "inputs": [],
      "name": "owner",
      "outputs": [
        {
          "name": "",
          "type": "address"
        }
      ],
      "payable": false,
      "stateMutability": "view",
      "type": "function"
    },
    {
      "constant": true,
      "inputs": [],
      "name": "minimumBet",
      "outputs": [
        {
          "name": "",
          "type": "uint256"
        }
      ],
      "payable": false,
      "stateMutability": "view",
      "type": "function"
    },
    {
      "constant": true,
      "inputs": [],
      "name": "maxAmountOfBets",
      "outputs": [
        {
          "name": "",
          "type": "uint256"
        }
      ],
      "payable": false,
      "stateMutability": "view",
      "type": "function"
    },
    {
      "constant": true,
      "inputs": [
        {
          "name": "",
          "type": "uint256"
        }
      ],
      "name": "players",
      "outputs": [
        {
          "name": "",
          "type": "address"
        }
      ],
      "payable": false,
      "stateMutability": "view",
      "type": "function"
    },
    {
      "constant": true,
      "inputs": [],
      "name": "totalBet",
      "outputs": [
        {
          "name": "",
          "type": "uint256"
        }
      ],
      "payable": false,
      "stateMutability": "view",
      "type": "function"
    },
    {
      "inputs": [
        {
          "name": "_minimumBet",
          "type": "uint256"
        }
      ],
      "payable": false,
      "stateMutability": "nonpayable",
      "type": "constructor"
    },
    {
      "payable": true,
      "stateMutability": "payable",
      "type": "fallback"
    },
    {
      "constant": false,
      "inputs": [
        {
          "name": "numberSelected",
          "type": "uint256"
        }
      ],
      "name": "bet",
      "outputs": [],
      "payable": true,
      "stateMutability": "payable",
      "type": "function"
    },
    {
      "constant": true,
      "inputs": [
        {
          "name": "player",
          "type": "address"
        }
      ],
      "name": "checkPlayerExists",
      "outputs": [
        {
          "name": "",
          "type": "bool"
        }
      ],
      "payable": false,
      "stateMutability": "view",
      "type": "function"
    },
    {
      "constant": false,
      "inputs": [],
      "name": "generateNumberWinner",
      "outputs": [],
      "payable": false,
      "stateMutability": "nonpayable",
      "type": "function"
    },
    {
      "constant": false,
      "inputs": [
        {
          "name": "numberWinner",
          "type": "uint256"
        }
      ],
      "name": "distributePrizes",
      "outputs": [],
      "payable": false,
      "stateMutability": "nonpayable",
      "type": "function"
    },
    {
      "constant": false,
      "inputs": [],
      "name": "resetData",
      "outputs": [],
      "payable": false,
      "stateMutability": "nonpayable",
      "type": "function"
    },
    {
      "constant": false,
      "inputs": [],
      "name": "kill",
      "outputs": [],
      "payable": false,
      "stateMutability": "nonpayable",
      "type": "function"
    }
  ],
  "bytecode": "0x6080604052606460045534801561001557600080fd5b50604051602080610a9c8339810180604052602081101561003557600080fd5b8101908080519060200190929190505050336000806101000a81548173ffffffffffffffffffffffffffffffffffffffff021916908373ffffffffffffffffffffffffffffffffffffffff1602179055506000811461009657806001819055505b506109f6806100a66000396000f3fe6080604052600436106100c25760003560e01c80636ca3fc3b1161007f578063c38a8afd11610059578063c38a8afd146102c9578063e08a96cd146102f4578063f71d96cb1461031f578063fe5e18531461039a576100c2565b80636ca3fc3b146102095780637365870b146102445780638da5cb5b14610272576100c2565b80630a50e361146100c45780632ca8c6d3146100db5780634081d9161461010657806341c0e1b51461016f578063478c4e0e146101865780634b1146911461019d575b005b3480156100d057600080fd5b506100d96103c5565b005b3480156100e757600080fd5b506100f06103e3565b6040518082815260200191505060405180910390f35b34801561011257600080fd5b506101556004803603602081101561012957600080fd5b81019080803573ffffffffffffffffffffffffffffffffffffffff1690602001909291905050506103e9565b604051808215151515815260200191505060405180910390f35b34801561017b57600080fd5b5061018461048b565b005b34801561019257600080fd5b5061019b61051c565b005b3480156101a957600080fd5b506101ec600480360360208110156101c057600080fd5b81019080803573ffffffffffffffffffffffffffffffffffffffff16906020019092919050505061053e565b604051808381526020018281526020019250505060405180910390f35b34801561021557600080fd5b506102426004803603602081101561022c57600080fd5b8101908080359060200190929190505050610562565b005b6102706004803603602081101561025a57600080fd5b810190808035906020019092919050505061078d565b005b34801561027e57600080fd5b506102876108e3565b604051808273ffffffffffffffffffffffffffffffffffffffff1673ffffffffffffffffffffffffffffffffffffffff16815260200191505060405180910390f35b3480156102d557600080fd5b506102de610908565b6040518082815260200191505060405180910390f35b34801561030057600080fd5b5061030961090e565b6040518082815260200191505060405180910390f35b34801561032b57600080fd5b506103586004803603602081101561034257600080fd5b8101908080359060200190929190505050610914565b604051808273ffffffffffffffffffffffffffffffffffffffff1673ffffffffffffffffffffffffffffffffffffffff16815260200191505060405180910390f35b3480156103a657600080fd5b506103af610950565b6040518082815260200191505060405180910390f35b60006001600a43816103d357fe5b060190506103e081610562565b50565b60035481565b600080600090505b600580549050811015610480578273ffffffffffffffffffffffffffffffffffffffff166005828154811061042257fe5b9060005260206000200160009054906101000a900473ffffffffffffffffffffffffffffffffffffffff1673ffffffffffffffffffffffffffffffffffffffff161415610473576001915050610486565b80806001019150506103f1565b50600090505b919050565b6000809054906101000a900473ffffffffffffffffffffffffffffffffffffffff1673ffffffffffffffffffffffffffffffffffffffff163373ffffffffffffffffffffffffffffffffffffffff16141561051a576000809054906101000a900473ffffffffffffffffffffffffffffffffffffffff1673ffffffffffffffffffffffffffffffffffffffff16ff5b565b600060058161052b9190610956565b5060006002819055506000600381905550565b60066020528060005260406000206000915090508060000154908060010154905082565b61056a610982565b600080905060008090505b6005805490508110156106b55760006005828154811061059157fe5b9060005260206000200160009054906101000a900473ffffffffffffffffffffffffffffffffffffffff16905084600660008373ffffffffffffffffffffffffffffffffffffffff1673ffffffffffffffffffffffffffffffffffffffff168152602001908152602001600020600101541415610655578084846064811061061557fe5b602002019073ffffffffffffffffffffffffffffffffffffffff16908173ffffffffffffffffffffffffffffffffffffffff168152505082806001019350505b600660008273ffffffffffffffffffffffffffffffffffffffff1673ffffffffffffffffffffffffffffffffffffffff16815260200190815260200160002060008082016000905560018201600090555050508080600101915050610575565b506106be61051c565b60006064600254816106cc57fe5b04905060008090505b8281101561078657600073ffffffffffffffffffffffffffffffffffffffff1684826064811061070157fe5b602002015173ffffffffffffffffffffffffffffffffffffffff16146107795783816064811061072d57fe5b602002015173ffffffffffffffffffffffffffffffffffffffff166108fc839081150290604051600060405180830381858888f19350505050158015610777573d6000803e3d6000fd5b505b80806001019150506106d5565b5050505050565b610796336103e9565b156107a057600080fd5b600181101580156107b25750600a8111155b6107bb57600080fd5b6001543410156107ca57600080fd5b34600660003373ffffffffffffffffffffffffffffffffffffffff1673ffffffffffffffffffffffffffffffffffffffff1681526020019081526020016000206000018190555080600660003373ffffffffffffffffffffffffffffffffffffffff1673ffffffffffffffffffffffffffffffffffffffff1681526020019081526020016000206001018190555060036000815480929190600101919050555060053390806001815401808255809150509060018203906000526020600020016000909192909190916101000a81548173ffffffffffffffffffffffffffffffffffffffff021916908373ffffffffffffffffffffffffffffffffffffffff160217905550503460026000828254019250508190555050565b6000809054906101000a900473ffffffffffffffffffffffffffffffffffffffff1681565b60015481565b60045481565b6005818154811061092157fe5b906000526020600020016000915054906101000a900473ffffffffffffffffffffffffffffffffffffffff1681565b60025481565b81548183558181111561097d5781836000526020600020918201910161097c91906109a5565b5b505050565b60405180610c800160405280606490602082028038833980820191505090505090565b6109c791905b808211156109c35760008160009055506001016109ab565b5090565b9056fea165627a7a7230582049d8d49f5138d72a9e3002712f6e495f16969fa957bdc1362cf93d52063c82770029",
  "source": "pragma solidity 0.5.8; // compiler version\n\n/*\nhttps://solidity.readthedocs.io/en/v0.4.20/units-and-global-variables.html\n\nmsg: values defined by the user when they execute the contract\n\nmsg.data (bytes): complete calldata\nmsg.gas (uint): remaining gas\nmsg.sender (address): sender of the message (current call)\nmsg.sig (bytes4): first four bytes of the calldata (i.e. function identifier)\nmsg.value (uint): number of wei sent with the message\n*/\n\n//This contract represents a single game\ncontract Casino {\n\n    //The address variable called owner is that long string from your Metamask account\n    //Something like 0x08f96d0f5C9086d7f6b59F9310532BdDCcF536e2\n    address payable public owner;\n\n    uint256 public minimumBet;\n    uint256 public totalBet;\n    uint256 public numberOfBets;\n    uint256 public maxAmountOfBets = 100;\n    address[] public players;\n\n    struct Player {\n        uint256 amountBet;\n        uint256 numberSelected;\n    }\n\n    //Mapping between the players address and their user info (Player)\n    //Using their address as the key to do something like this: playerInfo[address].amountBet\n    mapping(address => Player) public playerInfo;\n\n\n    //*********************************************************************\n    //*********************************************************************\n\n    //Fallback function in case someone sends ether to the contract so it\n    //doesn't get lost and to increase the treasury of this contract that will be distributed in each game\n    //This will allow you to save the ether you send to the contract. Otherwise it would be rejected\n    function() external payable {}\n\n\n\n\n    //Constructor\n    //Defining the minimum bet for the game\n    constructor(uint256 _minimumBet) public {\n        //The user address that created this contract is the owner\n        owner = msg.sender;\n        if (_minimumBet != 0) minimumBet = _minimumBet;\n    }\n\n\n    //*********************************************************************\n    //* PERFORMING A BET\n    //*********************************************************************\n\n\n    //To bet for a number between 1 and 10 both inclusive\n    //Payable modifier means it can receive ether when executed\n    //The msg.value is the amount of ether he paid when executing this payable function.\n    function bet(uint256 numberSelected) public payable {\n\n        //some sanity checks\n        //If the function exits here then ether paid is reverted to the sender.\n        require(!checkPlayerExists(msg.sender));\n        require(numberSelected >= 1 && numberSelected <= 10);\n        require(msg.value >= minimumBet);\n\n        //adding the player to the mapping\n        //their address is the key, the amount they are betting and the number selected\n        playerInfo[msg.sender].amountBet = msg.value;\n        playerInfo[msg.sender].numberSelected = numberSelected;\n\n        //increment the number of bets so we can count and check up to 100\n        numberOfBets++;\n\n        //maintain a list of players also\n        players.push(msg.sender);\n\n        //maintain the pot of money for this game\n        totalBet += msg.value;\n    }\n\n    //Constant modifier indicates that this function  doesn’t cost any gas to run\n    //It’s returning an already existing value from the blockchain\n    //Loops through the maintained players list and checks if the player is in it\n    //It is free to the sender because we are checking a variable already in the chain\n    function checkPlayerExists(address player) public view returns (bool){\n        for (uint256 i = 0; i < players.length; i++) {\n            if (players[i] == player) return true;\n        }\n        return false;\n    }\n\n\n    //*********************************************************************\n    //* DETERMINING THE WINNERS\n    //*********************************************************************\n\n\n    //Generates a number between 1 and 10 that will be the winner\n    function generateNumberWinner() public {\n        uint256 numberGenerated = block.number % 10 + 1;\n        // This isn't secure\n        distributePrizes(numberGenerated);\n    }\n\n    //Sends the corresponding ether to each winner depending on the total bets\n    function distributePrizes(uint256 numberWinner) public {\n        //Memory keyword array get’s deleted after the function executes\n        address[100] memory winners;\n\n        //This is the count for the array of winners\n        uint256 count = 0;\n\n        //for each of the players figure out if they have won\n        for (uint256 i = 0; i < players.length; i++) {\n            address playerAddress = players[i];\n\n            //if they have then add them to the winners array\n            if (playerInfo[playerAddress].numberSelected == numberWinner) {\n                winners[count] = playerAddress;\n                count++;\n            }\n\n            //remove player from the playerinfo\n            delete playerInfo[playerAddress];\n        }\n\n        resetData();\n\n        //calculating how much ether to send to winners\n        uint256 winnerEtherAmount = totalBet / winners.length;\n\n        //calling transfer on address of the winners to send them that amount of money\n        for (uint256 j = 0; j < count; j++) {\n\n            //sanity check\n            //check when iterating through array that it is an actual address and not an empty address\n            if (winners[j] != address(0)) {\n                address(uint160(winners[j])).transfer(winnerEtherAmount);\n            }\n        }\n    }\n\n    function resetData() public {\n        players.length = 0;\n        totalBet = 0;\n        numberOfBets = 0;\n    }\n\n\n    //*********************************************************************\n    //*********************************************************************\n\n    //destroy the contract whenever you want\n    function kill() public {\n        //only the owner can kill it\n        if (msg.sender == owner) selfdestruct(owner);\n    }\n}\n",
  "sourcePath": "/Users/thomasbigger/Desktop/projects/react/gamble-ethereum/contracts/Casino.sol",
  "compiler": {
    "name": "solc",
    "version": "0.5.8+commit.23d335f2.Emscripten.clang"
  },
  "schemaVersion": "3.0.11",
  "updatedAt": "2019-08-07T12:23:21.033Z",
  "devdoc": {
    "methods": {}
  },
  "userdoc": {
    "methods": {}
  }
}